{
  "contractName": "modi",
  "abi": [
    {
      "inputs": [
        {
          "internalType": "address",
          "name": "_account",
          "type": "address"
        }
      ],
      "name": "hasTLCRole",
      "outputs": [
        {
          "internalType": "bool",
          "name": "",
          "type": "bool"
        }
      ],
      "stateMutability": "view",
      "type": "function"
    },
    {
      "inputs": [
        {
          "internalType": "address",
          "name": "_account",
          "type": "address"
        }
      ],
      "name": "addTLCRole",
      "outputs": [],
      "stateMutability": "nonpayable",
      "type": "function"
    },
    {
      "inputs": [
        {
          "internalType": "address",
          "name": "_account",
          "type": "address"
        }
      ],
      "name": "hasConverterRole",
      "outputs": [
        {
          "internalType": "bool",
          "name": "",
          "type": "bool"
        }
      ],
      "stateMutability": "view",
      "type": "function"
    },
    {
      "inputs": [
        {
          "internalType": "address",
          "name": "_account",
          "type": "address"
        }
      ],
      "name": "addConverterRole",
      "outputs": [],
      "stateMutability": "nonpayable",
      "type": "function"
    },
    {
      "inputs": [
        {
          "internalType": "address",
          "name": "_account",
          "type": "address"
        }
      ],
      "name": "hasLF_1Role",
      "outputs": [
        {
          "internalType": "bool",
          "name": "",
          "type": "bool"
        }
      ],
      "stateMutability": "view",
      "type": "function"
    },
    {
      "inputs": [
        {
          "internalType": "address",
          "name": "_account",
          "type": "address"
        }
      ],
      "name": "addLF_1Role",
      "outputs": [],
      "stateMutability": "nonpayable",
      "type": "function"
    },
    {
      "inputs": [
        {
          "internalType": "address",
          "name": "_account",
          "type": "address"
        }
      ],
      "name": "hasLF_2Role",
      "outputs": [
        {
          "internalType": "bool",
          "name": "",
          "type": "bool"
        }
      ],
      "stateMutability": "view",
      "type": "function"
    },
    {
      "inputs": [
        {
          "internalType": "address",
          "name": "_account",
          "type": "address"
        }
      ],
      "name": "addLF_2Role",
      "outputs": [],
      "stateMutability": "nonpayable",
      "type": "function"
    },
    {
      "inputs": [
        {
          "internalType": "address",
          "name": "_account",
          "type": "address"
        }
      ],
      "name": "hasRHRole",
      "outputs": [
        {
          "internalType": "bool",
          "name": "",
          "type": "bool"
        }
      ],
      "stateMutability": "view",
      "type": "function"
    },
    {
      "inputs": [
        {
          "internalType": "address",
          "name": "_account",
          "type": "address"
        }
      ],
      "name": "addRHRole",
      "outputs": [],
      "stateMutability": "nonpayable",
      "type": "function"
    },
    {
      "inputs": [
        {
          "internalType": "address",
          "name": "_account",
          "type": "address"
        }
      ],
      "name": "hasCastingRole",
      "outputs": [
        {
          "internalType": "bool",
          "name": "",
          "type": "bool"
        }
      ],
      "stateMutability": "view",
      "type": "function"
    },
    {
      "inputs": [
        {
          "internalType": "address",
          "name": "_account",
          "type": "address"
        }
      ],
      "name": "addCastingRole",
      "outputs": [],
      "stateMutability": "nonpayable",
      "type": "function"
    }
  ],
  "bytecode": "0x60806040526002805460ff1916600117905534801561001d57600080fd5b5061060a8061002d6000396000f3fe608060405234801561001057600080fd5b50600436106100b45760003560e01c8063c716822611610071578063c716822614610143578063ecbc8cb714610156578063ef76cba814610169578063f4e4b13c1461017c578063f6b4be921461018f578063ff06e5a9146101a2576100b4565b80630fb97e66146100b95780631c5a3bc2146100ce5780632173c73f146100e157806381ddb202146100f45780639b6604c214610107578063aade144014610130575b600080fd5b6100cc6100c736600461059b565b6101b5565b005b6100cc6100dc36600461059b565b610222565b6100cc6100ef36600461059b565b61028d565b6100cc61010236600461059b565b6102fe565b61011a61011536600461059b565b610367565b60405161012791906105c9565b60405180910390f35b6100cc61013e36600461059b565b6103a2565b61011a61015136600461059b565b61040c565b6100cc61016436600461059b565b610449565b61011a61017736600461059b565b6104b8565b61011a61018a36600461059b565b6104ec565b61011a61019d36600461059b565b610526565b61011a6101b036600461059b565b610562565b6001600160a01b038116158015906101dc575060025461010090046001600160a01b031633145b6101e557600080fd5b6101ee81610367565b156101f857600080fd5b6001600160a01b03166000908152600160205260409020805463ff00000019166301000000179055565b6001600160a01b03811615801590610249575060025461010090046001600160a01b031633145b61025257600080fd5b61025b816104ec565b1561026557600080fd5b6001600160a01b03166000908152600160205260409020805462ff0000191662010000179055565b6001600160a01b038116158015906102b4575060025461010090046001600160a01b031633145b6102bd57600080fd5b6102c68161040c565b156102d057600080fd5b6001600160a01b03166000908152600160205260409020805465ff0000000000191665010000000000179055565b6001600160a01b03811615801590610325575060025461010090046001600160a01b031633145b61032e57600080fd5b61033781610562565b1561034157600080fd5b6001600160a01b03166000908152600160205260409020805461ff001916610100179055565b60006001600160a01b03821661037c57600080fd5b506001600160a01b03166000908152600160205260409020546301000000900460ff1690565b6001600160a01b038116158015906103c9575060025461010090046001600160a01b031633145b6103d257600080fd5b6103db816104b8565b156103e557600080fd5b6001600160a01b03166000908152600160208190526040909120805460ff19169091179055565b60006001600160a01b03821661042157600080fd5b506001600160a01b031660009081526001602052604090205465010000000000900460ff1690565b6001600160a01b03811615801590610470575060025461010090046001600160a01b031633145b61047957600080fd5b61048281610526565b1561048c57600080fd5b6001600160a01b03166000908152600160205260409020805464ff000000001916640100000000179055565b60006001600160a01b0382166104cd57600080fd5b506001600160a01b031660009081526001602052604090205460ff1690565b60006001600160a01b03821661050157600080fd5b506001600160a01b031660009081526001602052604090205462010000900460ff1690565b60006001600160a01b03821661053b57600080fd5b506001600160a01b0316600090815260016020526040902054640100000000900460ff1690565b60006001600160a01b03821661057757600080fd5b506001600160a01b0316600090815260016020526040902054610100900460ff1690565b6000602082840312156105ac578081fd5b81356001600160a01b03811681146105c2578182fd5b9392505050565b90151581526020019056fea2646970667358221220f1404af6acadb45ab08d7f40416297064abeb41a0440be555fe715cf469fb0b664736f6c63430008000033",
  "immutableReferences": {},
  "source": "// SPDX-License-Identifier: MIT\r\npragma solidity ^0.8.0;\r\nimport \"./Structure.sol\";\r\n\r\ncontract modi {\r\n    mapping(uint256 => Structure.Ladle) ladles;\r\n    mapping(address => Structure.Roles) roles;\r\n    bool forward=true;\r\n    address owner;\r\n\r\n    function hasTLCRole(address _account) public view returns (bool) {\r\n        require(_account != address(0));\r\n        return roles[_account].TLC;\r\n    }\r\n\r\n    function addTLCRole(address _account) public {\r\n        require((_account != address(0))&&(msg.sender==owner));\r\n        require(!hasTLCRole(_account));\r\n\r\n        roles[_account].TLC = true;\r\n    }\r\n\r\n    //Converter\r\n    function hasConverterRole(address _account) public view returns (bool) {\r\n        require((_account != address(0)));\r\n        return roles[_account].Converter;\r\n    }\r\n\r\n    function addConverterRole(address _account) public {\r\n        require((_account != address(0))&&(msg.sender==owner));\r\n        require(!hasConverterRole(_account));\r\n\r\n        roles[_account].Converter = true;\r\n    }\r\n\r\n    //LF-1 \r\n    function hasLF_1Role(address _account) public view returns (bool) {\r\n        require(_account != address(0));\r\n        return roles[_account].LF_1;\r\n    }\r\n\r\n    function addLF_1Role(address _account) public {\r\n        require((_account != address(0))&&(msg.sender==owner));\r\n        require(!hasLF_1Role(_account));\r\n\r\n        roles[_account].LF_1 = true;\r\n    }\r\n\r\n    //LF-2\r\n    function hasLF_2Role(address _account) public view returns (bool) {\r\n        require(_account != address(0));\r\n        return roles[_account].LF_2;\r\n    }\r\n\r\n    function addLF_2Role(address _account) public {\r\n        require((_account != address(0))&&(msg.sender==owner));\r\n        require(!hasLF_2Role(_account));\r\n\r\n        roles[_account].LF_2 = true;\r\n    }\r\n\r\n    //RH\r\n    function hasRHRole(address _account) public view returns (bool) {\r\n        require(_account != address(0));\r\n        return roles[_account].RH;\r\n    }\r\n\r\n    function addRHRole(address _account) public {\r\n        require((_account != address(0))&&(msg.sender==owner));\r\n        require(!hasRHRole(_account));\r\n\r\n        roles[_account].RH = true;\r\n    }\r\n\r\n    //CastingMachine\r\n    function hasCastingRole(address _account) public view returns (bool) {\r\n        require(_account != address(0));\r\n        return roles[_account].Casting;\r\n    }\r\n\r\n    function addCastingRole(address _account) public {\r\n        require((_account != address(0))&&(msg.sender==owner));\r\n        require(!hasCastingRole(_account));\r\n\r\n        roles[_account].Casting = true;\r\n    }\r\n\r\n    modifier manufactured(uint256 _uid) {\r\n        require(ladles[_uid].ladleState == Structure.State.Manufactured);\r\n        _;}\r\n     modifier shippedByTLC(uint256 _uid) \r\n    {\r\n        if(!forward)\r\n        {\r\n            require(ladles[_uid].ladleState == Structure.State.ReceivedBy_LF_1,\"Not received by lf-1\");\r\n        }\r\n        else\r\n        {\r\n        require(ladles[_uid].ladleState == Structure.State.ShippedByTLC,\"Not shipped by tlc\");\r\n        }\r\n        _;\r\n    }\r\n\r\n    modifier receivedByConverter(uint256 _uid) \r\n    {\r\n        if(forward!=true)\r\n        {\r\n        require(ladles[_uid].ladleState == Structure.State.ReceivedBy_LF_2,\"Not received by lf2\");\r\n        }\r\n        else\r\n        {\r\n        require(ladles[_uid].ladleState == Structure.State.ReceivedByConverter,\"Not received by converter\");\r\n        }\r\n        _;\r\n    }\r\n\r\n    modifier shippedByConverter(uint256 _uid) \r\n    {\r\n        if(!forward)\r\n        {\r\n        require(ladles[_uid].ladleState == Structure.State.ShippedBy_LF_2,\"Not shipped by Lf-2\");\r\n        }\r\n        else{\r\n        require(ladles[_uid].ladleState == Structure.State.ShippedByConverter,\"Not shipped by Converter\");\r\n        }\r\n        _;\r\n    }\r\n\r\n    modifier receivedByLF_1(uint256 _uid) \r\n    {\r\n        if(!forward)\r\n        {\r\n            require(ladles[_uid].ladleState == Structure.State.ShippedBy_RH\r\n            ,\"Not shipped by rh\");\r\n\r\n        }\r\n        else\r\n        {\r\n            require(\r\n            ladles[_uid].ladleState == Structure.State.ReceivedBy_LF_1\r\n        ,\"Not received by lf1\");\r\n        }\r\n        _;\r\n    }\r\n\r\n    modifier shippedByLF_1(uint256 _uid) \r\n    {\r\n        if(forward!=true)\r\n        {\r\n            require(ladles[_uid].ladleState == Structure.State.ShippedBy_RH\r\n            ,\"Not shipped by rh\");\r\n        }\r\n        \r\n        else\r\n        {\r\n        require(\r\n            ladles[_uid].ladleState == Structure.State.ShippedBy_LF_1\r\n        ,\"Not shipped by lf1\");\r\n        }\r\n        _;\r\n    }\r\n\r\n    modifier receivedByLF_2(uint256 _uid) \r\n    {\r\n        if(!forward)\r\n        {\r\n        require(ladles[_uid].ladleState == Structure.State.ReceivedBy_CastingMachine\r\n        ,\"Not received by casting machine\");\r\n        }\r\n        else\r\n        {\r\n        require(\r\n            ladles[_uid].ladleState == Structure.State.ReceivedBy_LF_2\r\n        ,\"Not received by lf2\");\r\n        }\r\n        _;\r\n    }\r\n\r\n    modifier shippedByLF_2(uint256 _uid) \r\n    {\r\n        if(!forward)\r\n        {\r\n            require(ladles[_uid].ladleState == Structure.State.ShippedBy_RH,\"Not shipped by rh\");\r\n        }\r\n        else{\r\n        require(\r\n            ladles[_uid].ladleState == Structure.State.ShippedBy_LF_2,\"Not shipped by lf2\");\r\n       }\r\n        _;\r\n    }\r\n\r\n    modifier receivedByRH(uint256 _uid) {\r\n        require(\r\n            ladles[_uid].ladleState == Structure.State.ReceivedBy_RH\r\n        ,\"received by rh\");\r\n        _;\r\n    }\r\n\r\n    modifier shippedByRH(uint256 _uid) {\r\n        require(\r\n            ladles[_uid].ladleState == Structure.State.ShippedBy_RH\r\n        ,\"received by rh\");\r\n        _;\r\n    }\r\n\r\n    modifier receivedByCasting(uint256 _uid) {\r\n        require(\r\n            ladles[_uid].ladleState == Structure.State.ReceivedBy_CastingMachine\r\n        ,\"received by casting\");\r\n        _;\r\n    }\r\n\r\n}   ",
  "sourcePath": "C:\\Users\\NITYAM TRIPATHI\\OneDrive\\Desktop\\server\\contracts\\Modifiers.sol",
  "compiler": {
    "name": "solc",
    "version": "0.8.0+commit.c7dfd78e.Emscripten.clang"
  },
  "schemaVersion": "3.4.16",
  "updatedAt": "2023-12-20T05:06:32.976Z",
  "devdoc": {
    "kind": "dev",
    "methods": {},
    "version": 1
  },
  "userdoc": {
    "kind": "user",
    "methods": {},
    "version": 1
  }
}