{
  "contractName": "Tracking",
  "abi": [
    {
      "inputs": [],
      "stateMutability": "payable",
      "type": "constructor",
      "payable": true
    },
    {
      "anonymous": false,
      "inputs": [
        {
          "indexed": false,
          "internalType": "uint256",
          "name": "uid",
          "type": "uint256"
        }
      ],
      "name": "Manufactured",
      "type": "event"
    },
    {
      "anonymous": false,
      "inputs": [
        {
          "indexed": true,
          "internalType": "address",
          "name": "_account",
          "type": "address"
        }
      ],
      "name": "ManufacturerAdded",
      "type": "event"
    },
    {
      "anonymous": false,
      "inputs": [
        {
          "indexed": false,
          "internalType": "uint256",
          "name": "uid",
          "type": "uint256"
        }
      ],
      "name": "ReceivedByCasting",
      "type": "event"
    },
    {
      "anonymous": false,
      "inputs": [
        {
          "indexed": false,
          "internalType": "uint256",
          "name": "uid",
          "type": "uint256"
        }
      ],
      "name": "ReceivedByConverter",
      "type": "event"
    },
    {
      "anonymous": false,
      "inputs": [
        {
          "indexed": false,
          "internalType": "uint256",
          "name": "uid",
          "type": "uint256"
        }
      ],
      "name": "ReceivedByLF_1",
      "type": "event"
    },
    {
      "anonymous": false,
      "inputs": [
        {
          "indexed": false,
          "internalType": "uint256",
          "name": "uid",
          "type": "uint256"
        }
      ],
      "name": "ReceivedByLF_2",
      "type": "event"
    },
    {
      "anonymous": false,
      "inputs": [
        {
          "indexed": false,
          "internalType": "uint256",
          "name": "uid",
          "type": "uint256"
        }
      ],
      "name": "ReceivedByRH",
      "type": "event"
    },
    {
      "anonymous": false,
      "inputs": [
        {
          "indexed": false,
          "internalType": "uint256",
          "name": "uid",
          "type": "uint256"
        }
      ],
      "name": "ShippedByCasting",
      "type": "event"
    },
    {
      "anonymous": false,
      "inputs": [
        {
          "indexed": false,
          "internalType": "uint256",
          "name": "uid",
          "type": "uint256"
        }
      ],
      "name": "ShippedByConverter",
      "type": "event"
    },
    {
      "anonymous": false,
      "inputs": [
        {
          "indexed": false,
          "internalType": "uint256",
          "name": "uid",
          "type": "uint256"
        }
      ],
      "name": "ShippedByLF_1",
      "type": "event"
    },
    {
      "anonymous": false,
      "inputs": [
        {
          "indexed": false,
          "internalType": "uint256",
          "name": "uid",
          "type": "uint256"
        }
      ],
      "name": "ShippedByLF_2",
      "type": "event"
    },
    {
      "anonymous": false,
      "inputs": [
        {
          "indexed": false,
          "internalType": "uint256",
          "name": "uid",
          "type": "uint256"
        }
      ],
      "name": "ShippedByRH",
      "type": "event"
    },
    {
      "anonymous": false,
      "inputs": [
        {
          "indexed": false,
          "internalType": "uint256",
          "name": "uid",
          "type": "uint256"
        }
      ],
      "name": "ShippedByTLC",
      "type": "event"
    },
    {
      "inputs": [],
      "name": "uid",
      "outputs": [
        {
          "internalType": "uint256",
          "name": "",
          "type": "uint256"
        }
      ],
      "stateMutability": "view",
      "type": "function",
      "constant": true
    },
    {
      "inputs": [
        {
          "internalType": "address",
          "name": "_account",
          "type": "address"
        }
      ],
      "name": "hasTLCRole",
      "outputs": [
        {
          "internalType": "bool",
          "name": "",
          "type": "bool"
        }
      ],
      "stateMutability": "view",
      "type": "function",
      "constant": true
    },
    {
      "inputs": [
        {
          "internalType": "address",
          "name": "_account",
          "type": "address"
        }
      ],
      "name": "addTLCRole",
      "outputs": [],
      "stateMutability": "nonpayable",
      "type": "function"
    },
    {
      "inputs": [
        {
          "internalType": "address",
          "name": "_account",
          "type": "address"
        }
      ],
      "name": "hasConverterRole",
      "outputs": [
        {
          "internalType": "bool",
          "name": "",
          "type": "bool"
        }
      ],
      "stateMutability": "view",
      "type": "function",
      "constant": true
    },
    {
      "inputs": [
        {
          "internalType": "address",
          "name": "_account",
          "type": "address"
        }
      ],
      "name": "addConverterRole",
      "outputs": [],
      "stateMutability": "nonpayable",
      "type": "function"
    },
    {
      "inputs": [
        {
          "internalType": "address",
          "name": "_account",
          "type": "address"
        }
      ],
      "name": "hasLF_1Role",
      "outputs": [
        {
          "internalType": "bool",
          "name": "",
          "type": "bool"
        }
      ],
      "stateMutability": "view",
      "type": "function",
      "constant": true
    },
    {
      "inputs": [
        {
          "internalType": "address",
          "name": "_account",
          "type": "address"
        }
      ],
      "name": "addLF_1Role",
      "outputs": [],
      "stateMutability": "nonpayable",
      "type": "function"
    },
    {
      "inputs": [
        {
          "internalType": "address",
          "name": "_account",
          "type": "address"
        }
      ],
      "name": "hasLF_2Role",
      "outputs": [
        {
          "internalType": "bool",
          "name": "",
          "type": "bool"
        }
      ],
      "stateMutability": "view",
      "type": "function",
      "constant": true
    },
    {
      "inputs": [
        {
          "internalType": "address",
          "name": "_account",
          "type": "address"
        }
      ],
      "name": "addLF_2Role",
      "outputs": [],
      "stateMutability": "nonpayable",
      "type": "function"
    },
    {
      "inputs": [
        {
          "internalType": "address",
          "name": "_account",
          "type": "address"
        }
      ],
      "name": "hasRHRole",
      "outputs": [
        {
          "internalType": "bool",
          "name": "",
          "type": "bool"
        }
      ],
      "stateMutability": "view",
      "type": "function",
      "constant": true
    },
    {
      "inputs": [
        {
          "internalType": "address",
          "name": "_account",
          "type": "address"
        }
      ],
      "name": "addRHRole",
      "outputs": [],
      "stateMutability": "nonpayable",
      "type": "function"
    },
    {
      "inputs": [
        {
          "internalType": "address",
          "name": "_account",
          "type": "address"
        }
      ],
      "name": "hasCastingRole",
      "outputs": [
        {
          "internalType": "bool",
          "name": "",
          "type": "bool"
        }
      ],
      "stateMutability": "view",
      "type": "function",
      "constant": true
    },
    {
      "inputs": [
        {
          "internalType": "address",
          "name": "_account",
          "type": "address"
        }
      ],
      "name": "addCastingRole",
      "outputs": [],
      "stateMutability": "nonpayable",
      "type": "function"
    },
    {
      "inputs": [
        {
          "internalType": "uint256",
          "name": "productCode",
          "type": "uint256"
        }
      ],
      "name": "manufactureLadle",
      "outputs": [],
      "stateMutability": "nonpayable",
      "type": "function"
    },
    {
      "inputs": [
        {
          "internalType": "uint256",
          "name": "_uid",
          "type": "uint256"
        }
      ],
      "name": "shipToConverter",
      "outputs": [],
      "stateMutability": "nonpayable",
      "type": "function"
    },
    {
      "inputs": [
        {
          "internalType": "uint256",
          "name": "_uid",
          "type": "uint256"
        }
      ],
      "name": "receiveByConverter",
      "outputs": [],
      "stateMutability": "nonpayable",
      "type": "function"
    },
    {
      "inputs": [
        {
          "internalType": "uint256",
          "name": "_uid",
          "type": "uint256"
        }
      ],
      "name": "shipToLF_1",
      "outputs": [],
      "stateMutability": "nonpayable",
      "type": "function"
    },
    {
      "inputs": [
        {
          "internalType": "uint256",
          "name": "_uid",
          "type": "uint256"
        }
      ],
      "name": "receiveByLF_1",
      "outputs": [],
      "stateMutability": "nonpayable",
      "type": "function"
    },
    {
      "inputs": [
        {
          "internalType": "uint256",
          "name": "_uid",
          "type": "uint256"
        }
      ],
      "name": "shipToLF_2",
      "outputs": [],
      "stateMutability": "nonpayable",
      "type": "function"
    },
    {
      "inputs": [
        {
          "internalType": "uint256",
          "name": "_uid",
          "type": "uint256"
        }
      ],
      "name": "receiveByLF_2",
      "outputs": [],
      "stateMutability": "nonpayable",
      "type": "function"
    },
    {
      "inputs": [
        {
          "internalType": "uint256",
          "name": "_uid",
          "type": "uint256"
        }
      ],
      "name": "shipToRH",
      "outputs": [],
      "stateMutability": "nonpayable",
      "type": "function"
    },
    {
      "inputs": [
        {
          "internalType": "uint256",
          "name": "_uid",
          "type": "uint256"
        }
      ],
      "name": "receiveByRH",
      "outputs": [],
      "stateMutability": "nonpayable",
      "type": "function"
    },
    {
      "inputs": [
        {
          "internalType": "uint256",
          "name": "_uid",
          "type": "uint256"
        }
      ],
      "name": "shipByRH",
      "outputs": [],
      "stateMutability": "nonpayable",
      "type": "function"
    },
    {
      "inputs": [
        {
          "internalType": "uint256",
          "name": "_uid",
          "type": "uint256"
        }
      ],
      "name": "receiveByCastingMachine",
      "outputs": [],
      "stateMutability": "nonpayable",
      "type": "function"
    },
    {
      "inputs": [
        {
          "internalType": "uint256",
          "name": "_uid",
          "type": "uint256"
        }
      ],
      "name": "fetchLadleHistory",
      "outputs": [
        {
          "components": [
            {
              "internalType": "uint256",
              "name": "uid",
              "type": "uint256"
            },
            {
              "internalType": "address",
              "name": "owner",
              "type": "address"
            },
            {
              "internalType": "enum Structure.State",
              "name": "ladleState",
              "type": "uint8"
            },
            {
              "components": [
                {
                  "internalType": "address",
                  "name": "manufacturer",
                  "type": "address"
                },
                {
                  "internalType": "uint256",
                  "name": "manufacturedDate",
                  "type": "uint256"
                }
              ],
              "internalType": "struct Structure.TLCDetails",
              "name": "manufacturer",
              "type": "tuple"
            },
            {
              "components": [
                {
                  "internalType": "address",
                  "name": "converter",
                  "type": "address"
                },
                {
                  "internalType": "uint256",
                  "name": "shipConverterDate",
                  "type": "uint256"
                },
                {
                  "internalType": "uint256",
                  "name": "recConverterDate",
                  "type": "uint256"
                }
              ],
              "internalType": "struct Structure.ConverterDetails",
              "name": "conv",
              "type": "tuple"
            },
            {
              "components": [
                {
                  "internalType": "uint256",
                  "name": "ladleNumber",
                  "type": "uint256"
                }
              ],
              "internalType": "struct Structure.LadleDetails",
              "name": "ladledet",
              "type": "tuple"
            },
            {
              "components": [
                {
                  "internalType": "address",
                  "name": "lf_1",
                  "type": "address"
                },
                {
                  "internalType": "uint256",
                  "name": "shipLf_1Date",
                  "type": "uint256"
                },
                {
                  "internalType": "uint256",
                  "name": "recLf_1Date",
                  "type": "uint256"
                }
              ],
              "internalType": "struct Structure.LF_1_Details",
              "name": "lf1",
              "type": "tuple"
            },
            {
              "components": [
                {
                  "internalType": "address",
                  "name": "lf_2",
                  "type": "address"
                },
                {
                  "internalType": "uint256",
                  "name": "shipLf_2Date",
                  "type": "uint256"
                },
                {
                  "internalType": "uint256",
                  "name": "recLf_2Date",
                  "type": "uint256"
                }
              ],
              "internalType": "struct Structure.LF_2_Details",
              "name": "lf2",
              "type": "tuple"
            },
            {
              "components": [
                {
                  "internalType": "address",
                  "name": "rh",
                  "type": "address"
                },
                {
                  "internalType": "uint256",
                  "name": "shipRhDate",
                  "type": "uint256"
                },
                {
                  "internalType": "uint256",
                  "name": "recRhDate",
                  "type": "uint256"
                }
              ],
              "internalType": "struct Structure.RH_Details",
              "name": "rh",
              "type": "tuple"
            },
            {
              "components": [
                {
                  "internalType": "address",
                  "name": "castingM",
                  "type": "address"
                },
                {
                  "internalType": "uint256",
                  "name": "shipCastingDate",
                  "type": "uint256"
                },
                {
                  "internalType": "uint256",
                  "name": "recCastingDate",
                  "type": "uint256"
                }
              ],
              "internalType": "struct Structure.Casting_Details",
              "name": "castingM",
              "type": "tuple"
            },
            {
              "internalType": "string",
              "name": "transaction",
              "type": "string"
            }
          ],
          "internalType": "struct Structure.Ladle[]",
          "name": "",
          "type": "tuple[]"
        },
        {
          "internalType": "enum Structure.State",
          "name": "",
          "type": "uint8"
        }
      ],
      "stateMutability": "view",
      "type": "function",
      "constant": true
    },
    {
      "inputs": [
        {
          "internalType": "string",
          "name": "_add",
          "type": "string"
        }
      ],
      "name": "fetchCLnt",
      "outputs": [
        {
          "internalType": "uint256",
          "name": "",
          "type": "uint256"
        },
        {
          "internalType": "uint256[10]",
          "name": "",
          "type": "uint256[10]"
        }
      ],
      "stateMutability": "view",
      "type": "function",
      "constant": true
    },
    {
      "inputs": [
        {
          "internalType": "uint256",
          "name": "_uid",
          "type": "uint256"
        }
      ],
      "name": "LastTime",
      "outputs": [
        {
          "internalType": "uint256",
          "name": "",
          "type": "uint256"
        }
      ],
      "stateMutability": "view",
      "type": "function",
      "constant": true
    }
  ],
  "bytecode": "0x6080604052600380543361010002610100600160a81b031960ff1990921660011791909116179055600080556141898061003a6000396000f3fe608060405234801561001057600080fd5b50600436106101a95760003560e01c8063b37e6a3f116100f9578063ee3bd5d211610097578063f4e4b13c11610071578063f4e4b13c146103a4578063f514ce36146103b7578063f6b4be92146103bf578063ff06e5a9146103d2576101a9565b8063ee3bd5d21461035d578063ef76cba814610370578063f1cbd73514610383576101a9565b8063d1810a40116100d3578063d1810a4014610311578063da9514d114610324578063db5634ff14610337578063ecbc8cb71461034a576101a9565b8063b37e6a3f146102ca578063b43e9d19146102dd578063c7168226146102fe576101a9565b806340f5b339116101665780639b6604c2116101405780639b6604c21461025b5780639f39ff7714610284578063a4af79fb14610297578063aade1440146102b7576101a9565b806340f5b33914610222578063704685531461023557806381ddb20214610248576101a9565b80630fb97e66146101ae57806314c8fa69146101c35780631c5a3bc2146101d65780632173c73f146101e957806330478371146101fc5780633ad270af1461020f575b600080fd5b6101c16101bc366004613b7f565b6103e5565b005b6101c16101d1366004613c4e565b610452565b6101c16101e4366004613b7f565b6107a9565b6101c16101f7366004613b7f565b610814565b6101c161020a366004613c4e565b610885565b6101c161021d366004613c4e565b610b6b565b6101c1610230366004613c4e565b610f17565b6101c1610243366004613c4e565b6111fc565b6101c1610256366004613b7f565b61153e565b61026e610269366004613b7f565b6115a7565b60405161027b9190613eae565b60405180910390f35b6101c1610292366004613c4e565b6115e6565b6102aa6102a5366004613c4e565b6118c7565b60405161027b9190614030565b6101c16102c5366004613b7f565b611e17565b6101c16102d8366004613c4e565b611e7e565b6102f06102eb366004613bad565b612453565b60405161027b929190614039565b61026e61030c366004613b7f565b61252c565b6101c161031f366004613c4e565b612569565b6101c1610332366004613c4e565b612b25565b6101c1610345366004613c4e565b612f19565b6101c1610358366004613b7f565b613201565b6101c161036b366004613c4e565b613270565b61026e61037e366004613b7f565b6135b1565b610396610391366004613c4e565b6135e5565b60405161027b929190613d72565b61026e6103b2366004613b7f565b613880565b6102aa6138ba565b61026e6103cd366004613b7f565b6138c0565b61026e6103e0366004613b7f565b6138fc565b6001600160a01b0381161580159061040c575060035461010090046001600160a01b031633145b61041557600080fd5b61041e816115a7565b1561042857600080fd5b6001600160a01b03166000908152600260205260409020805463ff00000019166301000000179055565b600354819060ff166104c757600a60008281526001602081905260409091200154600160a01b900460ff16600e81111561049c57634e487b7160e01b600052602160045260246000fd5b146104c25760405162461bcd60e51b81526004016104b990613ed6565b60405180910390fd5b610522565b600360008281526001602081905260409091200154600160a01b900460ff16600e81111561050557634e487b7160e01b600052602160045260246000fd5b146105225760405162461bcd60e51b81526004016104b990613f65565b61052b33613880565b61053457600080fd5b600082815260016020818152604080842080840180546001600160a01b0319908116331760ff60a01b19908116600560a01b17835542600a8501556004865293872086865280548088018255908852949096208254601590950201938455805494840180549096166001600160a01b039095169490941780865593549094929360ff600160a01b92839004169392169083600e8111156105e457634e487b7160e01b600052602160045260246000fd5b021790555060028281015490820180546001600160a01b03199081166001600160a01b039384161790915560038085015490840155600480850154908401805483169184169190911790556005808501549084015560068085015490840155600780850154908401556008808501549084018054831691841691909117905560098085015490840155600a8085015490840155600b8085015490840180548316918416919091179055600c8085015490840155600d8085015490840155600e8085015490840180548316918416919091179055600f8085015490840155601080850154908401556011808501549084018054909216921691909117905560128083015490820155601380830154908201556014808301805491830191610709906140d1565b610714929190613974565b50506006805491506000610727836140ba565b91905055506000600560405161073c90613d1c565b9081526020016040518091039020600654600a811061076b57634e487b7160e01b600052603260045260246000fd5b01556040517f8721a194b9423a808c35ebd796af1be71151870b2c0ab46bb8567e63bfc0aec39061079d908490614030565b60405180910390a15050565b6001600160a01b038116158015906107d0575060035461010090046001600160a01b031633145b6107d957600080fd5b6107e281613880565b156107ec57600080fd5b6001600160a01b03166000908152600260205260409020805462ff0000191662010000179055565b6001600160a01b0381161580159061083b575060035461010090046001600160a01b031633145b61084457600080fd5b61084d8161252c565b1561085757600080fd5b6001600160a01b03166000908152600260205260409020805465ff0000000000191665010000000000179055565b60035460ff166108ee5761089833613880565b6108a157600080fd5b600560008281526001602081905260409091200154600160a01b900460ff16600e8111156108df57634e487b7160e01b600052602160045260246000fd5b146108e957600080fd5b610900565b6108f7336135b1565b61090057600080fd5b60008181526001602081815260408084208084018054600160a01b60ff60a01b19918216811783554260058501556004865293872086865280548088018255908852949096208254601590950201938455805494840180546001600160a01b039096166001600160a01b0319909616959095178086559054919593949183900460ff1693919291169083600e8111156109a957634e487b7160e01b600052602160045260246000fd5b021790555060028281015490820180546001600160a01b03199081166001600160a01b039384161790915560038085015490840155600480850154908401805483169184169190911790556005808501549084015560068085015490840155600780850154908401556008808501549084018054831691841691909117905560098085015490840155600a8085015490840155600b8085015490840180548316918416919091179055600c8085015490840155600d8085015490840155600e8085015490840180548316918416919091179055600f8085015490840155601080850154908401556011808501549084018054909216921691909117905560128083015490820155601380830154908201556014808301805491830191610ace906140d1565b610ad9929190613974565b505050806005604051610aeb90613d3a565b9081526020016040518091039020600654600a8110610b1a57634e487b7160e01b600052603260045260246000fd5b015560068054906000610b2c8361410c565b91905055507f8ac6ed0a0a8b0192aeb6f216a81d1a2df3e454a8b30744e40f2287d1f7b186b581604051610b609190614030565b60405180910390a150565b600354819060ff16610bd757600860008281526001602081905260409091200154600160a01b900460ff16600e811115610bb557634e487b7160e01b600052602160045260246000fd5b14610bd25760405162461bcd60e51b81526004016104b990613ef3565b610c32565b600260008281526001602081905260409091200154600160a01b900460ff16600e811115610c1557634e487b7160e01b600052602160045260246000fd5b14610c325760405162461bcd60e51b81526004016104b990613fbc565b60035460ff16610c8057610c45336115a7565b610c4e57600080fd5b600082815260016020819052604090912001805460ff60a01b1916600560a11b1790556003805460ff19169055610cb6565b610c89336138fc565b610c9257600080fd5b600082815260016020819052604090912001805460ff60a01b1916600360a01b1790555b6000828152600460209081526040808320600180845291842081548084018355918552929093208254601590940201928355818101805491840180546001600160a01b0319166001600160a01b0390931692909217808355905492939260ff600160a01b9182900416929160ff60a01b19169083600e811115610d4957634e487b7160e01b600052602160045260246000fd5b021790555060028281015490820180546001600160a01b03199081166001600160a01b039384161790915560038085015490840155600480850154908401805483169184169190911790556005808501549084015560068085015490840155600780850154908401556008808501549084018054831691841691909117905560098085015490840155600a8085015490840155600b8085015490840180548316918416919091179055600c8085015490840155600d8085015490840155600e8085015490840180548316918416919091179055600f8085015490840155601080850154908401556011808501549084018054909216921691909117905560128083015490820155601380830154908201556014808301805491830191610e6e906140d1565b610e79929190613974565b5050506000828152600160205260409081902042600990910155518290600590610ea290613d1c565b9081526020016040518091039020600654600a8110610ed157634e487b7160e01b600052603260045260246000fd5b015560068054906000610ee38361410c565b91905055507ff1eab2ba8602175ba6c1f26a5dce6a0ffcbdef160203510842215cecd59e6a0a8260405161079d9190614030565b80600b60008281526001602081905260409091200154600160a01b900460ff16600e811115610f5657634e487b7160e01b600052602160045260246000fd5b14610f735760405162461bcd60e51b81526004016104b990613f49565b610f7c336138c0565b610f8557600080fd5b600082815260016020819052604091829020908101805460ff60a01b1916600360a21b17905542601290910155518290600590610fc190613d5f565b9081526020016040518091039020600654600a8110610ff057634e487b7160e01b600052603260045260246000fd5b0155600680549060006110028361410c565b90915550506000828152600460209081526040808320600180845291842081548084018355918552929093208254601590940201928355818101805491840180546001600160a01b0319166001600160a01b0390931692909217808355905492939260ff600160a01b9182900416929160ff60a01b19169083600e81111561109a57634e487b7160e01b600052602160045260246000fd5b021790555060028281015490820180546001600160a01b03199081166001600160a01b039384161790915560038085015490840155600480850154908401805483169184169190911790556005808501549084015560068085015490840155600780850154908401556008808501549084018054831691841691909117905560098085015490840155600a8085015490840155600b8085015490840180548316918416919091179055600c8085015490840155600d8085015490840155600e8085015490840180548316918416919091179055600f80850154908401556010808501549084015560118085015490840180549092169216919091179055601280830154908201556013808301549082015560148083018054918301916111bf906140d1565b6111ca929190613974565b5050507fd5bfa77158cbf2a00d196082a86ef8278429f103afff4756bc3d63995b5258c98260405161079d9190614030565b600354819060ff1661126857600e60008281526001602081905260409091200154600160a01b900460ff16600e81111561124657634e487b7160e01b600052602160045260246000fd5b146112635760405162461bcd60e51b81526004016104b990613f82565b6112c3565b600a60008281526001602081905260409091200154600160a01b900460ff16600e8111156112a657634e487b7160e01b600052602160045260246000fd5b146112c35760405162461bcd60e51b81526004016104b990613ed6565b6112cc336138c0565b6112d557600080fd5b600082815260016020818152604080842080840180546001600160a01b0319908116331760ff60a01b19908116600b60a01b1783554260108501556004865293872086865280548088018255908852949096208254601590950201938455805494840180549096166001600160a01b039095169490941780865593549094929360ff600160a01b92839004169392169083600e81111561138557634e487b7160e01b600052602160045260246000fd5b021790555060028281015490820180546001600160a01b03199081166001600160a01b039384161790915560038085015490840155600480850154908401805483169184169190911790556005808501549084015560068085015490840155600780850154908401556008808501549084018054831691841691909117905560098085015490840155600a8085015490840155600b8085015490840180548316918416919091179055600c8085015490840155600d8085015490840155600e8085015490840180548316918416919091179055600f80850154908401556010808501549084015560118085015490840180549092169216919091179055601280830154908201556013808301549082015560148083018054918301916114aa906140d1565b6114b5929190613974565b505060068054915060006114c8836140ba565b9190505550600060056040516114dd90613d2c565b9081526020016040518091039020600654600a811061150c57634e487b7160e01b600052603260045260246000fd5b01556040517f55af38e3575fa529592ff829e6875e20fffc8656f802a670fdfda9465b43e6fe9061079d908490614030565b6001600160a01b03811615801590611565575060035461010090046001600160a01b031633145b61156e57600080fd5b611577816138fc565b1561158157600080fd5b6001600160a01b03166000908152600260205260409020805461ff001916610100179055565b60006001600160a01b0382166115bc57600080fd5b506001600160a01b0381166000908152600260205260409020546301000000900460ff165b919050565b80600c60008281526001602081905260409091200154600160a01b900460ff16600e81111561162557634e487b7160e01b600052602160045260246000fd5b146116425760405162461bcd60e51b81526004016104b990613f10565b61164b3361252c565b61165457600080fd5b600082815260016020818152604080842080840180546001600160a01b0319908116331760ff60a01b19908116600d60a01b1783554260138501556004865293872086865280548088018255908852949096208254601590950201938455805494840180549096166001600160a01b039095169490941780865593549094929360ff600160a01b92839004169392169083600e81111561170457634e487b7160e01b600052602160045260246000fd5b021790555060028281015490820180546001600160a01b03199081166001600160a01b039384161790915560038085015490840155600480850154908401805483169184169190911790556005808501549084015560068085015490840155600780850154908401556008808501549084018054831691841691909117905560098085015490840155600a8085015490840155600b8085015490840180548316918416919091179055600c8085015490840155600d8085015490840155600e8085015490840180548316918416919091179055600f8085015490840155601080850154908401556011808501549084018054909216921691909117905560128083015490820155601380830154908201556014808301805491830191611829906140d1565b611834929190613974565b50506003805460ff191690555060068054906000611851836140ba565b91905055506000600560405161186690613d5f565b9081526020016040518091039020600654600a811061189557634e487b7160e01b600052603260045260246000fd5b01556040517fc1e5584b8b7d7e5bb573ee0a4450a87334a1687203668dcb6d571464ab05b3859061079d908490614030565b60008181526001602081905260408220810154600160a01b900460ff16600e81111561190357634e487b7160e01b600052602160045260246000fd5b14156119315760035460ff161561192c57506000818152600160205260409020600301546115e1565b611e0f565b600260008381526001602081905260409091200154600160a01b900460ff16600e81111561196f57634e487b7160e01b600052602160045260246000fd5b14156119b05760035460ff161561199857506000818152600160205260409020600301546115e1565b506000818152600160205260409020600901546115e1565b600360008381526001602081905260409091200154600160a01b900460ff16600e8111156119ee57634e487b7160e01b600052602160045260246000fd5b1415611a2f5760035460ff1615611a1757506000818152600160205260409020600601546115e1565b506000818152600160205260409020600601546115e1565b600560008381526001602081905260409091200154600160a01b900460ff16600e811115611a6d57634e487b7160e01b600052602160045260246000fd5b1415611aae5760035460ff1615611a9657506000818152600160205260409020600501546115e1565b506000818152600160205260409020600c01546115e1565b600660008381526001602081905260409091200154600160a01b900460ff16600e811115611aec57634e487b7160e01b600052602160045260246000fd5b1415611b2d5760035460ff1615611b1557506000818152600160205260409020600a01546115e1565b506000818152600160205260409020600a01546115e1565b600860008381526001602081905260409091200154600160a01b900460ff16600e811115611b6b57634e487b7160e01b600052602160045260246000fd5b1415611bac5760035460ff1615611b9457506000818152600160205260409020600901546115e1565b506000818152600160205260409020600f01546115e1565b600a60008381526001602081905260409091200154600160a01b900460ff16600e811115611bea57634e487b7160e01b600052602160045260246000fd5b1415611c2b5760035460ff1615611c1357506000818152600160205260409020600d01546115e1565b506000818152600160205260409020600d01546115e1565b600b60008381526001602081905260409091200154600160a01b900460ff16600e811115611c6957634e487b7160e01b600052602160045260246000fd5b1415611caa5760035460ff1615611c9257506000818152600160205260409020600c01546115e1565b506000818152600160205260409020601201546115e1565b600c60008381526001602081905260409091200154600160a01b900460ff16600e811115611ce857634e487b7160e01b600052602160045260246000fd5b1415611d295760035460ff1615611d1157506000818152600160205260409020601001546115e1565b506000818152600160205260409020601001546115e1565b600d60008381526001602081905260409091200154600160a01b900460ff16600e811115611d6757634e487b7160e01b600052602160045260246000fd5b1415611d905760035460ff161561192c57506000818152600160205260409020600f01546115e1565b600e60008381526001602081905260409091200154600160a01b900460ff16600e811115611dce57634e487b7160e01b600052602160045260246000fd5b1415611e0f5760035460ff1615611df757506000818152600160205260409020601301546115e1565b506000818152600160205260409020601301546115e1565b506000919050565b6001600160a01b03811615801590611e3e575060035461010090046001600160a01b031633145b611e4757600080fd5b611e50816135b1565b15611e5a57600080fd5b6001600160a01b03166000908152600260205260409020805460ff19166001179055565b600354819060ff16611eea57600b60008281526001602081905260409091200154600160a01b900460ff16600e811115611ec857634e487b7160e01b600052602160045260246000fd5b14611ee55760405162461bcd60e51b81526004016104b990614013565b611f45565b600560008281526001602081905260409091200154600160a01b900460ff16600e811115611f2857634e487b7160e01b600052602160045260246000fd5b14611f455760405162461bcd60e51b81526004016104b990613f2c565b60035460ff16156121d057611f5933613880565b611f6257600080fd5b6000828152600160208181526040808420808401805460ff60a01b19908116600360a11b17825542600c8401556004855292862085855280548087018255908752939095208154601590940201928355845493830180546001600160a01b0319166001600160a01b039095169490941780855594549094929360ff600160a01b9283900416939092169083600e81111561200c57634e487b7160e01b600052602160045260246000fd5b021790555060028281015490820180546001600160a01b03199081166001600160a01b039384161790915560038085015490840155600480850154908401805483169184169190911790556005808501549084015560068085015490840155600780850154908401556008808501549084018054831691841691909117905560098085015490840155600a8085015490840155600b8085015490840180548316918416919091179055600c8085015490840155600d8085015490840155600e8085015490840180548316918416919091179055600f8085015490840155601080850154908401556011808501549084018054909216921691909117905560128083015490820155601380830154908201556014808301805491830191612131906140d1565b61213c929190613974565b50505081600560405161214e90613d4f565b9081526020016040518091039020600654600a811061217d57634e487b7160e01b600052603260045260246000fd5b01556006805490600061218f8361410c565b91905055507f61e7cd10241ff84967ab351f195b2724c321947592c450700f8f0a6042052745826040516121c39190614030565b60405180910390a161244f565b6121d9336138c0565b6121e257600080fd5b6000828152600160208181526040808420808401805460ff60a01b19908116600360a21b17825542600c8401556004855292862085855280548087018255908752939095208154601590940201928355845493830180546001600160a01b0319166001600160a01b039095169490941780855594549094929360ff600160a01b9283900416939092169083600e81111561228c57634e487b7160e01b600052602160045260246000fd5b021790555060028281015490820180546001600160a01b03199081166001600160a01b039384161790915560038085015490840155600480850154908401805483169184169190911790556005808501549084015560068085015490840155600780850154908401556008808501549084018054831691841691909117905560098085015490840155600a8085015490840155600b8085015490840180548316918416919091179055600c8085015490840155600d8085015490840155600e8085015490840180548316918416919091179055600f80850154908401556010808501549084015560118085015490840180549092169216919091179055601280830154908201556013808301549082015560148083018054918301916123b1906140d1565b6123bc929190613974565b50506003805460ff191690555060405182906005906123da90613d4f565b9081526020016040518091039020600654600a811061240957634e487b7160e01b600052603260045260246000fd5b01556006805490600061241b8361410c565b91905055507fd5bfa77158cbf2a00d196082a86ef8278429f103afff4756bc3d63995b5258c98260405161079d9190614030565b5050565b600061245d6139ff565b6000805b600a8110156124d057600160058660405161247c9190613d00565b908152602001604051809103902082600a81106124a957634e487b7160e01b600052603260045260246000fd5b0154106124be57816124ba8161410c565b9250505b806124c88161410c565b915050612461565b50806005856040516124e29190613d00565b9081526040805191829003602001822061014083019091529081600a8282826020028201915b81548152602001906001019080831161250857505050505090509250925050915091565b60006001600160a01b03821661254157600080fd5b506001600160a01b031660009081526002602052604090205465010000000000900460ff1690565b600354819060ff166125d557600d60008281526001602081905260409091200154600160a01b900460ff16600e8111156125b357634e487b7160e01b600052602160045260246000fd5b146125d05760405162461bcd60e51b81526004016104b990613f9f565b612630565b600860008281526001602081905260409091200154600160a01b900460ff16600e81111561261357634e487b7160e01b600052602160045260246000fd5b146126305760405162461bcd60e51b81526004016104b990613ef3565b60035460ff1615156001146128b2576126483361252c565b61265157600080fd5b6000828152600160208181526040808420808401805460ff60a01b19908116600760a11b17825542600f8401556004855292862085855280548087018255908752939095208154601590940201928355845493830180546001600160a01b0319166001600160a01b039095169490941780855594549094929360ff600160a01b9283900416939092169083600e8111156126fb57634e487b7160e01b600052602160045260246000fd5b021790555060028281015490820180546001600160a01b03199081166001600160a01b039384161790915560038085015490840155600480850154908401805483169184169190911790556005808501549084015560068085015490840155600780850154908401556008808501549084018054831691841691909117905560098085015490840155600a8085015490840155600b8085015490840180548316918416919091179055600c8085015490840155600d8085015490840155600e8085015490840180548316918416919091179055600f8085015490840155601080850154908401556011808501549084018054909216921691909117905560128083015490820155601380830154908201556014808301805491830191612820906140d1565b61282b929190613974565b50505081600560405161283d90613d2c565b9081526020016040518091039020600654600a811061286c57634e487b7160e01b600052603260045260246000fd5b01556006805490600061287e8361410c565b91905055507fd005944b2fefc3605cbee9b1794f5a10ba92d4a14f5a0cb25aeebb90fefe927b826040516121c39190614030565b6128bb336115a7565b6128c457600080fd5b6000828152600160208181526040808420808401805460ff60a01b19908116600560a11b17825542600f8401556004855292862085855280548087018255908752939095208154601590940201928355845493830180546001600160a01b0319166001600160a01b039095169490941780855594549094929360ff600160a01b9283900416939092169083600e81111561296e57634e487b7160e01b600052602160045260246000fd5b021790555060028281015490820180546001600160a01b03199081166001600160a01b039384161790915560038085015490840155600480850154908401805483169184169190911790556005808501549084015560068085015490840155600780850154908401556008808501549084018054831691841691909117905560098085015490840155600a8085015490840155600b8085015490840180548316918416919091179055600c8085015490840155600d8085015490840155600e8085015490840180548316918416919091179055600f8085015490840155601080850154908401556011808501549084018054909216921691909117905560128083015490820155601380830154908201556014808301805491830191612a93906140d1565b612a9e929190613974565b505050816005604051612ab090613d2c565b9081526020016040518091039020600654600a8110612adf57634e487b7160e01b600052603260045260246000fd5b015560068054906000612af18361410c565b91905055507fcb1ee9ecb9e3697f394817f40efc10d7a0e6f144ce95ec40621a1afb68abc4198260405161079d9190614030565b612b2e336135b1565b612b3757600080fd5b600054612b45906001614072565b6000819055612b52613a1e565b8181526060810180514260209182015233908301819052905152612b7581613935565b60006040820152612b86818461396b565b600082815260016020818152604092839020845181559084015191810180546001600160a01b0319166001600160a01b03909316929092178083559284015184939192909160ff60a01b1916600160a01b83600e811115612bf757634e487b7160e01b600052602160045260246000fd5b0217905550606082015180516002830180546001600160a01b03199081166001600160a01b03938416179091556020928301516003850155608085015180516004860180548416918516919091179055808401516005860155604090810151600686015560a086015151600786015560c086015180516008870180548516918616919091179055808501516009870155810151600a86015560e08601518051600b87018054851691861691909117905580850151600c870155810151600d8601556101008601518051600e87018054851691861691909117905580850151600f87015581015160108601556101208601518051601187018054909416941693909317909155818301516012850155015160138301556101408301518051612d249260148501920190613aa2565b50505060008281526004602090815260408083208054600180820183559185529383902085516015909502019384559184015191830180546001600160a01b0319166001600160a01b039093169290921780835590840151849392909160ff60a01b1916600160a01b83600e811115612dad57634e487b7160e01b600052602160045260246000fd5b0217905550606082015180516002830180546001600160a01b03199081166001600160a01b03938416179091556020928301516003850155608085015180516004860180548416918516919091179055808401516005860155604090810151600686015560a086015151600786015560c086015180516008870180548516918616919091179055808501516009870155810151600a86015560e08601518051600b87018054851691861691909117905580850151600c870155810151600d8601556101008601518051600e87018054851691861691909117905580850151600f87015581015160108601556101208601518051601187018054909416941693909317909155818301516012850155015160138301556101408301518051612eda9260148501920190613aa2565b5050507fd29d8a68ca7c8c74be5579719d445aabfe230ed6e6a83aff475a663500eb760982604051612f0c9190614030565b60405180910390a1505050565b80600160008281526001602081905260409091200154600160a01b900460ff16600e811115612f5857634e487b7160e01b600052602160045260246000fd5b14612f755760405162461bcd60e51b81526004016104b990613eb9565b612f7e336138fc565b612f8757600080fd5b6000828152600160208181526040808420808401805460ff60a01b19908116600160a11b1782554260068401556004855292862085855280548087018255908752939095208154601590940201928355845493830180546001600160a01b0319166001600160a01b039095169490941780855594549094929360ff600160a01b9283900416939092169083600e81111561303157634e487b7160e01b600052602160045260246000fd5b021790555060028281015490820180546001600160a01b03199081166001600160a01b039384161790915560038085015490840155600480850154908401805483169184169190911790556005808501549084015560068085015490840155600780850154908401556008808501549084018054831691841691909117905560098085015490840155600a8085015490840155600b8085015490840180548316918416919091179055600c8085015490840155600d8085015490840155600e8085015490840180548316918416919091179055600f8085015490840155601080850154908401556011808501549084018054909216921691909117905560128083015490820155601380830154908201556014808301805491830191613156906140d1565b613161929190613974565b50506006805491506000613174836140ba565b91905055506000600560405161318990613d3a565b9081526020016040518091039020600654600a81106131b857634e487b7160e01b600052603260045260246000fd5b015560035460ff166131d2576003805460ff191660011790555b7f0ccef9b4ad286e2c0275208bf47e91b83afd5092f284f82921fab5398a370a0c8260405161079d9190614030565b6001600160a01b03811615801590613228575060035461010090046001600160a01b031633145b61323157600080fd5b61323a816138c0565b1561324457600080fd5b6001600160a01b03166000908152600260205260409020805464ff000000001916640100000000179055565b600354819060ff166132dc57600c60008281526001602081905260409091200154600160a01b900460ff16600e8111156132ba57634e487b7160e01b600052602160045260246000fd5b146132d75760405162461bcd60e51b81526004016104b990613ff6565b613337565b600660008281526001602081905260409091200154600160a01b900460ff16600e81111561331a57634e487b7160e01b600052602160045260246000fd5b146133375760405162461bcd60e51b81526004016104b990613fd9565b613340336115a7565b61334957600080fd5b600082815260016020818152604080842080840180546001600160a01b0319908116331760ff60a01b19908116600160a31b17835542600d8501556004865293872086865280548088018255908852949096208254601590950201938455805494840180549096166001600160a01b039095169490941780865593549094929360ff600160a01b92839004169392169083600e8111156133f957634e487b7160e01b600052602160045260246000fd5b021790555060028281015490820180546001600160a01b03199081166001600160a01b039384161790915560038085015490840155600480850154908401805483169184169190911790556005808501549084015560068085015490840155600780850154908401556008808501549084018054831691841691909117905560098085015490840155600a8085015490840155600b8085015490840180548316918416919091179055600c8085015490840155600d8085015490840155600e8085015490840180548316918416919091179055600f808501549084015560108085015490840155601180850154908401805490921692169190911790556012808301549082015560138083015490820155601480830180549183019161351e906140d1565b613529929190613974565b5050600680549150600061353c836140ba565b91905055506000600560405161355190613d4f565b9081526020016040518091039020600654600a811061358057634e487b7160e01b600052603260045260246000fd5b01556040517e8002d16da5a5e337725c67f6464c6b17b93b4dbe46b0e8b875794791fd49fb9061079d908490614030565b60006001600160a01b0382166135c657600080fd5b506001600160a01b031660009081526002602052604090205460ff1690565b6000818152600460209081526040808320600180845282852001548154835181860281018601909452808452606095949293600160a01b90920460ff1692849190869084015b828210156138715760008481526020908190206040805161016081018252601586029092018054835260018101546001600160a01b03811694840194909452919290830190600160a01b900460ff16600e81111561369957634e487b7160e01b600052602160045260246000fd5b600e8111156136b857634e487b7160e01b600052602160045260246000fd5b815260408051808201825260028401546001600160a01b0390811682526003850154602083810191909152808501929092528251606080820185526004870154831682526005870154828501526006870154828601528486019190915283518084018552600787015481528186015283518082018552600887015483168152600987015481850152600a87015481860152608086015283518082018552600b87015483168152600c87015481850152600d8701548186015260a086015283518082018552600e87015483168152600f8701548185015260108701548186015260c0860152835190810184526011860154909116815260128501549181019190915260138401549181019190915260e0820152601482018054610100909201916137e0906140d1565b80601f016020809104026020016040519081016040528092919081815260200182805461380c906140d1565b80156138595780601f1061382e57610100808354040283529160200191613859565b820191906000526020600020905b81548152906001019060200180831161383c57829003601f168201915b5050505050815250508152602001906001019061362b565b50505050915091509150915091565b60006001600160a01b03821661389557600080fd5b506001600160a01b031660009081526002602052604090205462010000900460ff1690565b60005481565b60006001600160a01b0382166138d557600080fd5b506001600160a01b0316600090815260026020526040902054640100000000900460ff1690565b60006001600160a01b03821661391157600080fd5b506001600160a01b0316600090815260026020526040902054610100900460ff1690565b608081015160009081905260c082015181905260e082015181905261010082015181905261012082015152606061014090910152565b60a09091015152565b828054613980906140d1565b90600052602060002090601f0160209004810192826139a257600085556139ef565b82601f106139b357805485556139ef565b828001600101855582156139ef57600052602060002091601f016020900482015b828111156139ef5782548255916001019190600101906139d4565b506139fb929150613b16565b5090565b604051806101400160405280600a906020820280368337509192915050565b604080516101608101825260008082526020820181905290918201908152602001613a47613b2b565b8152602001613a54613b42565b8152602001613a61613b6c565b8152602001613a6e613b42565b8152602001613a7b613b42565b8152602001613a88613b42565b8152602001613a95613b42565b8152602001606081525090565b828054613aae906140d1565b90600052602060002090601f016020900481019282613ad057600085556139ef565b82601f10613ae957805160ff19168380011785556139ef565b828001600101855582156139ef579182015b828111156139ef578251825591602001919060010190613afb565b5b808211156139fb5760008155600101613b17565b604080518082019091526000808252602082015290565b604051806060016040528060006001600160a01b0316815260200160008152602001600081525090565b6040518060200160405280600081525090565b600060208284031215613b90578081fd5b81356001600160a01b0381168114613ba6578182fd5b9392505050565b60006020808385031215613bbf578182fd5b823567ffffffffffffffff80821115613bd6578384fd5b818501915085601f830112613be9578384fd5b813581811115613bfb57613bfb61413d565b604051601f8201601f1916810185018381118282101715613c1e57613c1e61413d565b6040528181528382018501881015613c34578586fd5b818585018683013790810190930193909352509392505050565b600060208284031215613c5f578081fd5b5035919050565b6001600160a01b03169052565b600f8110613c9157634e487b7160e01b600052602160045260246000fd5b9052565b60008151808452613cad81602086016020860161408a565b601f01601f19169290920160200192915050565b80516001600160a01b0316825260208082015190830152604090810151910152565b519052565b80516001600160a01b03168252602090810151910152565b60008251613d1281846020870161408a565b9190910192915050565b636c662d3160e01b815260040190565b610e4d60f31b815260020190565b6831b7b73b32b93a32b960b91b815260090190565b633633169960e11b815260040190565b6663617374696e6760c81b815260070190565b604080825283518282018190526000919060609081850190602080820287018401818a01875b84811015613e9057605f198a840301865281516102c08151855285820151613dc287870182613c66565b5089820151613dd38b870182613c73565b5088820151613de48a870182613ce8565b50608082015160a0613df881880183613cc1565b8301519050610100613e0c87820183613ce3565b60c08401519150610120613e2281890184613cc1565b60e08501519250613e37610180890184613cc1565b818501519250613e4b6101e0890184613cc1565b8401519150613e609050610240870182613cc1565b506101408201519150806102a0860152613e7c81860183613c95565b978601979450505090830190600101613d98565b505080965050613ea281880189613c73565b50505050509392505050565b901515815260200190565b602080825260039082015262139cdd60ea1b604082015260600190565b60208082526003908201526227399960e91b604082015260600190565b60208082526003908201526227391960e91b604082015260600190565b60208082526002908201526139b960f11b604082015260600190565b6020808252600390820152624e723160e81b604082015260600190565b602080825260029082015261393960f11b604082015260600190565b6020808252600390820152624e734360e81b604082015260600190565b6020808252600390820152624e736d60e81b604082015260600190565b6020808252600390820152624e726d60e81b604082015260600190565b6020808252600390820152624e726360e81b604082015260600190565b6020808252600390820152624e733160e81b604082015260600190565b6020808252600390820152622739b960e91b604082015260600190565b60208082526003908201526227393960e91b604082015260600190565b90815260200190565b828152610160810160208083018460005b600a8110156140675781518352918301919083019060010161404a565b505050509392505050565b6000821982111561408557614085614127565b500190565b60005b838110156140a557818101518382015260200161408d565b838111156140b4576000848401525b50505050565b6000816140c9576140c9614127565b506000190190565b6002810460018216806140e557607f821691505b6020821081141561410657634e487b7160e01b600052602260045260246000fd5b50919050565b600060001982141561412057614120614127565b5060010190565b634e487b7160e01b600052601160045260246000fd5b634e487b7160e01b600052604160045260246000fdfea26469706673582212201c2eb2141f5e7cfc1d873ec2efd9183c0647833f335e05dc61881fd4453a7fb964736f6c63430008000033",
  "immutableReferences": {},
  "source": "// SPDX-License-Identifier: MIT\r\npragma solidity ^0.8.0;\r\n\r\n// import \"./Structure.sol\";\r\n//import \"./Modifiers.sol\";\r\n\r\nlibrary Structure {\r\n    enum State {\r\n        Manufactured,//0\r\n        ShippedByTLC,//1\r\n        ReceivedByConverter,//2\r\n        ShippedByConverter,//3\r\n        ReceivedBy_Slagpot,//4\r\n        ReceivedBy_LF_1,//5\r\n        ShippedBy_LF_1,//6\r\n        ShippedBy_Slagpot,//7\r\n        ReceivedBy_LF_2,//8\r\n        ReceivedBy_Slag_dumping,//9\r\n        ShippedBy_LF_2,//10\r\n        ReceivedBy_RH,//11\r\n        ShippedBy_RH,//12\r\n        ReceivedBy_CastingMachine,//13\r\n        ShippedBy_CastingMachine//14\r\n    }\r\n    struct TLCDetails {\r\n        address manufacturer;\r\n        uint256 manufacturedDate;\r\n    }\r\n    struct LadleDetails {\r\n        uint256 ladleNumber;\r\n    }\r\n    struct ConverterDetails {\r\n        address converter;\r\n        uint shipConverterDate;\r\n        uint recConverterDate;\r\n    }\r\n    struct LF_1_Details {\r\n        address lf_1;\r\n        uint shipLf_1Date;\r\n        uint recLf_1Date;\r\n    }\r\n    struct LF_2_Details {\r\n        address lf_2;\r\n        uint shipLf_2Date;\r\n        uint recLf_2Date;\r\n    }\r\n    struct RH_Details {\r\n        address rh;\r\n        uint shipRhDate;\r\n        uint recRhDate;\r\n    }\r\n    struct Casting_Details {\r\n        address castingM;\r\n        uint shipCastingDate;\r\n        uint recCastingDate;\r\n    }\r\n    struct Slagpot_Details {\r\n        address slagpot;\r\n       uint shipSlagDate;\r\n        uint recSlagDate;\r\n    }\r\n    struct Slagpot_dumping_Details {\r\n        address slagpot_dumping;\r\n    }\r\n    struct Ladle {\r\n        uint256 uid;\r\n        address owner;\r\n        State ladleState;\r\n        TLCDetails manufacturer;\r\n        ConverterDetails conv;\r\n        LadleDetails ladledet;\r\n        LF_1_Details lf1;\r\n        LF_2_Details lf2;\r\n        RH_Details rh;\r\n        Casting_Details castingM;\r\n        string transaction;\r\n    }\r\n\r\n    struct LadleHistory {\r\n        Ladle[] history;\r\n    }\r\n\r\n    struct Roles {\r\n        bool TLC;\r\n        bool Converter;\r\n        bool LF_1;\r\n        bool LF_2;\r\n        bool RH;\r\n        bool Casting;\r\n        bool SlagPot;\r\n        bool Dumping;\r\n    }\r\n // Block number stuct\r\n    struct Txblocks {\r\n        uint256 TTC; // blockTLCToConverter\r\n        uint256 CTLF_1; // blockConverterToLf-1\r\n        uint256 LF_1TLF_2; // blockLF-1ToLf-2\r\n        uint256 LF_2TRH; //blockLf-2toRh\r\n        \r\n        \r\n    }\r\n}\r\n\r\ncontract Tracking \r\n{\r\n    event ManufacturerAdded(address indexed _account);\r\n    uint256 public uid;\r\n mapping(uint256 => Structure.Ladle) ladles;\r\n    mapping(address => Structure.Roles) roles;\r\n    bool forward=true;\r\n    address owner;\r\n\r\n    function hasTLCRole(address _account) public view returns (bool) {\r\n        require(_account != address(0));\r\n        return roles[_account].TLC;\r\n    }\r\n\r\n    function addTLCRole(address _account) public {\r\n        require((_account != address(0))&&(msg.sender==owner));\r\n        require(!hasTLCRole(_account));\r\n\r\n        roles[_account].TLC = true;\r\n    }\r\n\r\n    //Converter\r\n    function hasConverterRole(address _account) public view returns (bool) {\r\n        require((_account != address(0)));\r\n        return roles[_account].Converter;\r\n    }\r\n\r\n    function addConverterRole(address _account) public {\r\n        require((_account != address(0))&&(msg.sender==owner));\r\n        require(!hasConverterRole(_account));\r\n\r\n        roles[_account].Converter = true;\r\n    }\r\n\r\n    //LF-1 \r\n    function hasLF_1Role(address _account) public view returns (bool) {\r\n        require(_account != address(0));\r\n        return roles[_account].LF_1;\r\n    }\r\n\r\n    function addLF_1Role(address _account) public {\r\n        require((_account != address(0))&&(msg.sender==owner));\r\n        require(!hasLF_1Role(_account));\r\n\r\n        roles[_account].LF_1 = true;\r\n    }\r\n\r\n    //LF-2\r\n    function hasLF_2Role(address _account) public view returns (bool) {\r\n        require(_account != address(0));\r\n        return roles[_account].LF_2;\r\n    }\r\n\r\n    function addLF_2Role(address _account) public {\r\n        require((_account != address(0))&&(msg.sender==owner));\r\n        require(!hasLF_2Role(_account));\r\n\r\n        roles[_account].LF_2 = true;\r\n    }\r\n\r\n    //RH\r\n    function hasRHRole(address _account) public view returns (bool) {\r\n        require(_account != address(0));\r\n        return roles[_account].RH;\r\n    }\r\n\r\n    function addRHRole(address _account) public {\r\n        require((_account != address(0))&&(msg.sender==owner));\r\n        require(!hasRHRole(_account));\r\n\r\n        roles[_account].RH = true;\r\n    }\r\n\r\n    //CastingMachine\r\n    function hasCastingRole(address _account) public view returns (bool) {\r\n        require(_account != address(0));\r\n        return roles[_account].Casting;\r\n    }\r\n\r\n    function addCastingRole(address _account) public {\r\n        require((_account != address(0))&&(msg.sender==owner));\r\n        require(!hasCastingRole(_account));\r\n\r\n        roles[_account].Casting = true;\r\n    }\r\n\r\n    modifier manufactured(uint256 _uid) {\r\n        require(ladles[_uid].ladleState == Structure.State.Manufactured);\r\n        _;}\r\n     modifier shippedByTLC(uint256 _uid) \r\n    {\r\n     \r\n        require(ladles[_uid].ladleState == Structure.State.ShippedByTLC,\"Nst\");\r\n        _;\r\n    }\r\n\r\n    modifier receivedByConverter(uint256 _uid) \r\n    {\r\n        if(!forward)\r\n        {\r\n        require(ladles[_uid].ladleState == Structure.State.ReceivedBy_LF_2,\"Nr2\");\r\n        }       \r\n        else\r\n        {\r\n        require(ladles[_uid].ladleState == Structure.State.ReceivedByConverter,\"Nrc\");\r\n        }\r\n        _;\r\n    }\r\n\r\n    modifier shippedByConverter(uint256 _uid) \r\n    {\r\n        if(!forward)\r\n        {\r\n        require(ladles[_uid].ladleState == Structure.State.ShippedBy_LF_2,\"Ns2\");\r\n        }\r\n        else{\r\n        require(ladles[_uid].ladleState == Structure.State.ShippedByConverter,\"NsC\");\r\n        }\r\n        _;\r\n    }\r\n\r\n    modifier receivedByLF_1(uint256 _uid) \r\n    {\r\n        if(!forward)\r\n        {\r\n            require(ladles[_uid].ladleState == Structure.State.ReceivedBy_RH\r\n            ,\"Nrr\");\r\n\r\n        }\r\n        else\r\n        {\r\n            require(\r\n            ladles[_uid].ladleState == Structure.State.ReceivedBy_LF_1\r\n        ,\"Nr1\");\r\n        }\r\n        _;\r\n    }\r\n\r\n    modifier shippedByLF_1(uint256 _uid) \r\n    {\r\n        if(!forward)\r\n        {\r\n            require(ladles[_uid].ladleState == Structure.State.ShippedBy_RH\r\n            ,\"Nsr\");\r\n        }\r\n        \r\n        else\r\n        {\r\n        require(\r\n            ladles[_uid].ladleState == Structure.State.ShippedBy_LF_1\r\n        ,\"Ns1\");\r\n        }\r\n        _;\r\n    }\r\n\r\n    modifier receivedByLF_2(uint256 _uid) \r\n    {\r\n        if(!forward)\r\n        {\r\n        require(ladles[_uid].ladleState == Structure.State.ReceivedBy_CastingMachine\r\n        ,\"Nrm\");\r\n        }\r\n        else\r\n        {\r\n        require(\r\n            ladles[_uid].ladleState == Structure.State.ReceivedBy_LF_2\r\n        ,\"Nr2\");\r\n        }\r\n        _;\r\n    }\r\n\r\n    modifier shippedByLF_2(uint256 _uid) \r\n    {\r\n        if(!forward)\r\n        {\r\n            require(ladles[_uid].ladleState == Structure.State.ShippedBy_CastingMachine,\"Nsm\");\r\n        }\r\n        else{\r\n        require(\r\n            ladles[_uid].ladleState == Structure.State.ShippedBy_LF_2,\"Ns2\");\r\n       }\r\n        _;\r\n    }\r\n\r\n    modifier receivedByRH(uint256 _uid) {\r\n        require(\r\n            ladles[_uid].ladleState == Structure.State.ReceivedBy_RH\r\n        ,\"rr\");\r\n        _;\r\n    }\r\n\r\n    modifier shippedByRH(uint256 _uid) {\r\n        require(\r\n            ladles[_uid].ladleState == Structure.State.ShippedBy_RH\r\n        ,\"sr\");\r\n        _;\r\n    }\r\n\r\n    modifier receivedByCasting(uint256 _uid) {\r\n        require(\r\n            ladles[_uid].ladleState == Structure.State.ReceivedBy_CastingMachine\r\n        ,\"rm\");\r\n        _;\r\n    }\r\n\r\n    mapping(uint256 => Structure.LadleHistory) ladleHistory; \r\n    //TLC    \r\n    constructor()  payable {\r\n        owner = msg.sender;\r\n        uid = 0;\r\n    }\r\n    mapping(string=>uint[10])  lntCnt ; uint i;\r\n   // mapping(address=>uint[]) uidCnt;\r\n   \r\n   \r\n    event Manufactured(uint256 uid);\r\n    event ShippedByTLC(uint256 uid);\r\n    event ReceivedByConverter(uint256 uid);\r\n    event ShippedByConverter(uint256 uid);\r\n    event ReceivedByLF_1(uint256 uid);\r\n    event ShippedByLF_1(uint256 uid);\r\n    event ReceivedByLF_2(uint256 uid);\r\n    event ShippedByLF_2(uint256 uid);\r\n    event ReceivedByRH(uint256 uid);\r\n    event ShippedByRH(uint256 uid);\r\n    event ReceivedByCasting(uint256 uid);\r\n    event ShippedByCasting(uint256 uid);\r\n    function manufactureEmptyInitialize(Structure.Ladle memory ladle) internal pure {\r\n        address converter;\r\n        string memory transaction;\r\n        address lf_1;\r\n        address lf_2;\r\n        address rh;\r\n        address castingMachine;\r\n        ladle.conv.converter = converter;\r\n        ladle.lf1.lf_1 = lf_1;\r\n        ladle.lf2.lf_2 = lf_2;\r\n        ladle.rh.rh = rh;\r\n        ladle.castingM.castingM = castingMachine;\r\n        ladle.transaction = transaction;        \r\n    }\r\n    function manufactureLadleInitialize(\r\n        Structure.Ladle memory ladle,\r\n        uint256 ladleCode\r\n    ) internal pure {\r\n        ladle.ladledet.ladleNumber = ladleCode;\r\n    }\r\n\r\n    // STEP 1 : Ladle Formation\r\n    function manufactureLadle(uint256 productCode)public {\r\n        require(hasTLCRole(msg.sender));\r\n        uid = uid + 1;\r\n        uint256 _uid = uid;\r\n        Structure.Ladle memory ladle;\r\n        ladle.uid = _uid;\r\n        ladle.manufacturer.manufacturedDate = block.timestamp;\r\n        ladle.owner = msg.sender;\r\n        ladle.manufacturer.manufacturer = msg.sender;\r\n        manufactureEmptyInitialize(ladle);\r\n        ladle.ladleState = Structure.State.Manufactured;\r\n        manufactureLadleInitialize(ladle,productCode);\r\n        ladles[_uid] = ladle;\r\n        ladleHistory[_uid].history.push(ladle);\r\n        emit Manufactured(_uid);}\r\n    //Converter.\r\n    function shipToConverter(uint256 _uid)public{\r\n        if(!forward){\r\n            require(hasLF_1Role(msg.sender));\r\n            require(ladles[_uid].ladleState == Structure.State.ReceivedBy_LF_1);\r\n        }\r\n        else{\r\n        require(hasTLCRole(msg.sender));}\r\n        ladles[_uid].ladleState = Structure.State.ShippedByTLC;\r\n        ladles[_uid].conv.shipConverterDate=block.timestamp;\r\n        ladleHistory[_uid].history.push(ladles[_uid]);\r\n        lntCnt[\"converter\"][i]=_uid;i++;\r\n        emit ShippedByTLC(_uid);\r\n    }\r\n    function receiveByConverter(uint256 _uid)public shippedByTLC(_uid)   {\r\n        require(hasConverterRole(msg.sender));\r\n        // ladles[_uid].owner = msg.sender;\r\n        ladles[_uid].ladleState = Structure.State.ReceivedByConverter;\r\n        ladles[_uid].conv.recConverterDate=block.timestamp;\r\n        ladleHistory[_uid].history.push(ladles[_uid]);\r\n        i--;\r\n        lntCnt[\"converter\"][i]=0;\r\n        if(!forward){forward=true;}\r\n        emit ReceivedByConverter(_uid);\r\n    }\r\n    // LF-1.\r\n    function shipToLF_1(uint256 _uid) public receivedByConverter(_uid){\r\n        if(!forward){\r\n            require(hasLF_2Role(msg.sender));\r\n            ladles[_uid].ladleState = Structure.State.ShippedBy_LF_2;\r\n            forward=false;}\r\n        else{\r\n            require(hasConverterRole(msg.sender));\r\n        ladles[_uid].ladleState = Structure.State.ShippedByConverter;}\r\n        ladleHistory[_uid].history.push(ladles[_uid]);   \r\n        ladles[_uid].lf1.shipLf_1Date=block.timestamp;     \r\n       lntCnt[\"lf-1\"][i]=_uid;i++;\r\n        emit ShippedByConverter(_uid);}\r\n    function receiveByLF_1(uint256 _uid)\r\n        public\r\n        shippedByConverter(_uid){\r\n        require(hasLF_1Role(msg.sender));\r\n        ladles[_uid].owner = msg.sender;\r\n        ladles[_uid].ladleState = Structure.State.ReceivedBy_LF_1;\r\n        ladles[_uid].lf1.recLf_1Date=block.timestamp;     \r\n        ladleHistory[_uid].history.push(ladles[_uid]);i--;\r\n        lntCnt[\"lf-1\"][i]=0;\r\n        emit ReceivedByLF_1(_uid);\r\n    }\r\n    // LF-2.\r\n    function shipToLF_2(uint256 _uid)\r\n        public\r\n        receivedByLF_1(_uid){\r\n        if(forward){\r\n            require(hasLF_1Role(msg.sender));\r\n        ladles[_uid].ladleState = Structure.State.ShippedBy_LF_1;\r\n         ladles[_uid].lf2.shipLf_2Date=block.timestamp;     \r\n        ladleHistory[_uid].history.push(ladles[_uid]);\r\n        lntCnt[\"lf-2\"][i]=_uid;i++;\r\n        emit ShippedByLF_1(_uid);}\r\n        else{\r\n            require(hasRHRole(msg.sender));\r\n        ladles[_uid].ladleState = Structure.State.ShippedBy_RH;\r\n        ladles[_uid].lf2.shipLf_2Date=block.timestamp;     \r\n        ladleHistory[_uid].history.push(ladles[_uid]);\r\n        forward=false;\r\n       lntCnt[\"lf-2\"][i]=_uid;i++;\r\n        emit ShippedByRH(_uid);\r\n        }\r\n        }\r\n    function receiveByLF_2(uint256 _uid) public shippedByLF_1(_uid)\r\n    { require(hasLF_2Role(msg.sender));\r\n        ladles[_uid].owner = msg.sender;\r\n        ladles[_uid].ladleState = Structure.State.ReceivedBy_LF_2;\r\n        ladles[_uid].lf2.recLf_2Date=block.timestamp;     \r\n        ladleHistory[_uid].history.push(ladles[_uid]);i--;\r\n      lntCnt[\"lf-2\"][i]=0;\r\n        emit ReceivedByLF_2(_uid);\r\n    }\r\n    // RH\r\n    function shipToRH(uint256 _uid) public receivedByLF_2(_uid){\r\n        if(forward!=true){\r\n            require(hasCastingRole(msg.sender));\r\n    ladles[_uid].ladleState = Structure.State.ShippedBy_CastingMachine;\r\n    ladles[_uid].rh.shipRhDate=block.timestamp;     \r\n    ladleHistory[_uid].history.push(ladles[_uid]);\r\n  lntCnt[\"rh\"][i]=_uid; i++;\r\n    emit ShippedByCasting(_uid);\r\n        }\r\n        else{\r\n             require(hasLF_2Role(msg.sender));\r\n        ladles[_uid].ladleState = Structure.State.ShippedBy_LF_2;\r\n        ladles[_uid].rh.shipRhDate=block.timestamp;     \r\n        ladleHistory[_uid].history.push(ladles[_uid]);\r\n   lntCnt[\"rh\"][i]=_uid;i++;\r\n        emit ShippedByLF_2(_uid);}\r\n        \r\n    }\r\n    function receiveByRH(uint256 _uid) public shippedByLF_2(_uid){\r\n        require(hasRHRole(msg.sender));\r\n        ladles[_uid].owner = msg.sender;\r\n        ladles[_uid].ladleState = Structure.State.ReceivedBy_RH;\r\n        ladles[_uid].rh.recRhDate=block.timestamp;     \r\n        ladleHistory[_uid].history.push(ladles[_uid]);i--;\r\n     lntCnt[\"rh\"][i]=0;\r\n        emit ReceivedByRH(_uid);\r\n    }\r\n\r\n    function shipByRH(uint256 _uid)\r\n        public\r\n        receivedByRH(_uid)\r\n    {\r\n        require(hasRHRole(msg.sender));\r\n        ladles[_uid].ladleState = Structure.State.ShippedBy_RH;\r\n        ladles[_uid].castingM.shipCastingDate=block.timestamp;     \r\n        //shipCastingDate\r\n      lntCnt[\"casting\"][i]=_uid;i++;\r\n        ladleHistory[_uid].history.push(ladles[_uid]);\r\n        emit ShippedByRH(_uid);\r\n    }\r\n    //Casting\r\n    function receiveByCastingMachine(uint256 _uid)\r\n        public\r\n        shippedByRH(_uid)\r\n    {\r\n        require(hasCastingRole(msg.sender));\r\n        ladles[_uid].owner = msg.sender;\r\n        ladles[_uid].ladleState = Structure.State.ReceivedBy_CastingMachine;\r\n        ladles[_uid].castingM.recCastingDate=block.timestamp;     \r\n        ladleHistory[_uid].history.push(ladles[_uid]);\r\n        forward=false;i--;\r\n        lntCnt[\"casting\"][i]=0;\r\n        emit ReceivedByCasting(_uid);\r\n       \r\n    }\r\n    // function fetchLadleCountAtStation(address accnt,uint stage) public view returns (uint256) {\r\n    //     return lntCnt[accnt][stage];}\r\n\r\n    function fetchLadleHistory(uint256 _uid)\r\n        public\r\n        view\r\n        returns (Structure.Ladle[] memory,Structure.State){\r\n        return (ladleHistory[_uid].history,ladles[_uid].ladleState);}\r\n\r\n    function fetchCLnt(string memory _add)\r\n        public\r\n        view\r\n        returns (uint,uint[10] memory){ uint cnt;\r\n            for(uint j=0;j<10;j++){\r\n                if(lntCnt[_add][j]>=1){\r\n                    cnt++;\r\n                }\r\n            }\r\n        return (cnt,lntCnt[_add]);}\r\n\r\n    function LastTime(uint _uid) public view  returns (uint256){\r\n        if(ladles[_uid].ladleState== Structure.State.ShippedByTLC ){\r\n            if(forward){\r\n                return ladles[_uid].manufacturer.manufacturedDate;\r\n            }\r\n        }\r\n        else if(ladles[_uid].ladleState== Structure.State.ReceivedByConverter){\r\n            if(forward){\r\n                return ladles[_uid].manufacturer.manufacturedDate;\r\n            }\r\n            else{\r\n                return ladles[_uid].lf1.shipLf_1Date;\r\n            }\r\n        }\r\n        else if(ladles[_uid].ladleState== Structure.State.ShippedByConverter){\r\n            if(forward){\r\n                return ladles[_uid].conv.recConverterDate;\r\n            }\r\n            else{\r\n                return ladles[_uid].conv.recConverterDate;\r\n            }\r\n        }\r\n        else if(ladles[_uid].ladleState== Structure.State.ReceivedBy_LF_1){\r\n            if(forward){\r\n                return ladles[_uid].conv.shipConverterDate;\r\n            }\r\n            else{\r\n                return ladles[_uid].lf2.shipLf_2Date;\r\n            }\r\n        }\r\n        else if(ladles[_uid].ladleState== Structure.State.ShippedBy_LF_1){\r\n            if(forward){\r\n                return ladles[_uid].lf1.recLf_1Date;\r\n            }\r\n            else{\r\n                return ladles[_uid].lf1.recLf_1Date;\r\n            }\r\n        }\r\n        else if(ladles[_uid].ladleState== Structure.State.ReceivedBy_LF_2){\r\n            if(forward){\r\n                return ladles[_uid].lf1.shipLf_1Date;\r\n            }\r\n            else{\r\n                return ladles[_uid].rh.shipRhDate;\r\n            }\r\n        }\r\n        else if(ladles[_uid].ladleState== Structure.State.ShippedBy_LF_2){\r\n            if(forward){\r\n                return ladles[_uid].lf2.recLf_2Date;\r\n            }\r\n            else{\r\n                return ladles[_uid].lf2.recLf_2Date;\r\n            }\r\n        }\r\n        else if(ladles[_uid].ladleState== Structure.State.ReceivedBy_RH){\r\n            if(forward){\r\n                return ladles[_uid].lf2.shipLf_2Date;\r\n            }\r\n            else{\r\n                return ladles[_uid].castingM.shipCastingDate;\r\n            }\r\n        }\r\n        else if(ladles[_uid].ladleState== Structure.State.ShippedBy_RH){\r\n            if(forward){\r\n                return ladles[_uid].rh.recRhDate;\r\n            }\r\n            else{\r\n                return ladles[_uid].rh.recRhDate;\r\n            }\r\n        }\r\n        else if(ladles[_uid].ladleState== Structure.State.ReceivedBy_CastingMachine){\r\n            if(forward){\r\n                return ladles[_uid].rh.shipRhDate;\r\n            }\r\n        }\r\n        else if(ladles[_uid].ladleState== Structure.State.ShippedBy_CastingMachine){\r\n            if(forward){\r\n                return ladles[_uid].castingM.recCastingDate;\r\n            }\r\n            else{\r\n                return ladles[_uid].castingM.recCastingDate;\r\n            }\r\n        }\r\n        return 0;\r\n    }\r\n}   ",
  "sourcePath": "C:\\Users\\NITYAM TRIPATHI\\OneDrive\\Desktop\\server\\contracts\\Tracking.sol",
  "compiler": {
    "name": "solc",
    "version": "0.8.0+commit.c7dfd78e.Emscripten.clang"
  },
  "schemaVersion": "3.4.16",
  "updatedAt": "2023-12-20T05:06:33.374Z",
  "networkType": "ethereum",
  "devdoc": {
    "kind": "dev",
    "methods": {},
    "version": 1
  },
  "userdoc": {
    "kind": "user",
    "methods": {},
    "version": 1
  }
}